:020000040800F2
:1000000000500020B9260008D5050008D7050008D3
:10001000D9050008DB050008DD0500080000000028
:10002000000000000000000000000000C1240008E3
:10003000DF0500080000000061250008E105000858
:1000400001270008012700080127000801270008F0
:1000500001270008012700080127000801270008E0
:1000600001270008012700080127000801270008D0
:1000700001270008012700080127000801270008C0
:1000800001270008012700080127000801270008B0
:1000900001270008012700080127000801270008A0
:1000A0000127000801270008012700080127000890
:1000B0000127000801270008012700080127000880
:1000C0000127000801270008012700080127000870
:1000D0000127000801270008012700080127000860
:1000E0000127000801270008012700080000000080
:1000F0000000000000000000000000000000000000
:0C01000000000000000000005FF808F1A3
:100110000348044B834202D0034B03B11847704796
:100120003000002030000020000000000548064993
:100130000B1AD90F01EBA301491002D0034B03B1F5
:1001400018477047300000203000002000000000F9
:1001500010B5064C237843B9FFF7DAFF044B13B10F
:100160000448AFF300800123237010BD300000204D
:10017000000000000427000808B5044B1BB1044927
:100180000448AFF30080BDE80840CFE7000000005E
:10019000340000200427000870B50D4E0D4D761B6D
:1001A000B61006D0002455F8043B01349847A64207
:1001B000F9D1094E094D02F0A5FA761BB61006D00A
:1001C000002455F8043B01349847A642F9D170BD8C
:1001D00078270008782700087C270008782700087F
:1001E000844641EA000313F0030349D1403A23D384
:1001F0000B6803604B6843608B688360CB68C360A7
:100200000B6903614B6943618B698361CB69C3618E
:100210000B6A03624B6A43628B6A8362CB6AC36276
:100220000B6B03634B6B43638B6B8363CB6BC3635E
:1002300040304031403ADBD230320BD30B680360A0
:100240004B6843608B688360CB68C36010301031AB
:10025000103AF3D20C3205D351F8043B40F8043B7A
:10026000043AF9D2043208D0D2071CBF11F8013B7E
:1002700000F8013B01D30B8803806046704700BF44
:10028000082A13D38B07B1D010F00303AED0C3F10B
:100290000403D21ADB071CBF11F8013B00F8013B35
:1002A000A4D331F8023B20F8023B9FE7043AD9D3AC
:1002B000013A11F8013B00F8013BF9D20B780370C9
:1002C0004B7843708B78837060467047830730B5F6
:1002D00048D0541E002A3FD00346CAB201E0013C78
:1002E0003AD303F8012B9D07F9D1032C2DD9CDB2B8
:1002F00045EA05250F2C45EA054536D9A4F110023B
:1003000022F00F0C03F1200EE6444FEA121C03F119
:10031000100242E9045542E9025510327245F8D103
:100320000CF1010214F00C0F03EB021204F00F0C9D
:1003300013D0ACF1040323F003030433134442F855
:10034000045B9342FBD10CF003042CB1CAB21C44F1
:1003500003F8012B9C42FBD130BD64461346002CB0
:10036000F4D1F9E703461446BFE71A46A446E0E78E
:1003700010B50446024801F038FF206010BD00BFF0
:100380003827000808B501228188006800F0D4FEF3
:1003900008BD08B500228188006800F0CDFE08BDC8
:1003A00008B58188006800F0CDFE08BD08B58368F7
:1003B0001B68984708BD08B583685B68984708BD07
:1003C00010B50446FFF7F2FF4FF4FA7001F006FF94
:1003D0002046FFF7F0FF4FF4FA7001F0FFFE10BD6A
:1003E00008B5FFF7DDFF08BD08B5FFF7CBFF08BD77
:1003F00008B5FFF7CEFF08BD30B589B000240494DE
:10040000059406940794184B9A6942F020029A6169
:100410009A6902F020020192019A9A6942F0080258
:100420009A619A6902F008020292029A9A6942F06D
:1004300004029A619B6903F004030393039B0B4D31
:1004400022464FF49051284600F076FE4FF4905328
:1004500004930123059306940223079304A92846D5
:1004600000F058FD09B030BD00100240000C014002
:1004700000B583B0044B00934FF48053ADF80430C3
:100480000248FFF79DFFFBE7000C01400000002041
:1004900072B6FEE708B50B480B4B036010234360B0
:1004A00000238360C36003614361037643768376F0
:1004B000C3760377437700F03FF900B908BDFFF733
:1004C000E7FF00BF500000200064004008B50D4861
:1004D0000D4B03604FF48273436000238360C3605D
:1004E000036143614FF4007282612022C2610362A2
:1004F000436283620A23C36200F08CFE00B908BD28
:10050000FFF7C6FF780000200038004000B591B02A
:100510002822002106A8FFF7D9FE002301930293A9
:100520000393049305930223069301220A92102257
:100530000B920D934FF4E0130F9306A800F002FA0C
:1005400078B90F23019302230293002303930493AA
:100550000593012101A800F027FC20B911B05DF836
:1005600004FBFFF795FFFFF793FF000000B589B08C
:1005700000F0AEF9FFF7CAFFFFF73EFFFFF78AFF73
:10058000FFF7A4FF0A48FFF7F3FE0DF1040C094C36
:100590000FCCACE80F0094E807008CE807000021BE
:1005A00001A801F0E6FD044B186001F0DDFDFEE757
:1005B0000C0000201C2700084C000020034B0360A7
:1005C000034B0B6080231360704700BFD0020020F4
:1005D000D0000020FEE7FEE7FEE7FEE7FEE77047FB
:1005E00008B500F087F901F04FFD012800D108BDE2
:1005F00001F0D8FFFBE7000000B583B0114B9A690A
:1006000042F001029A619A6902F001020092009A96
:10061000DA6942F08052DA61DB6903F080530193BA
:10062000019B00220F216FF0010000F0A7FD064A98
:10063000536823F0E06343F00073536003B05DF848
:1006400004FB00BF001002400000014010B586B05E
:10065000002302930393049305930268164B9A4276
:1006600001D006B010BD03F5D633DA6942F000724E
:10067000DA61DA6902F000720092009A9A6942F037
:1006800004029A619B6903F004030193019B4FF4F8
:1006900000630293094C02A9204600F03BFC4FF492
:1006A00080530293022303930323059302A9204658
:1006B00000F030FCD5E700BF0064004000080140B6
:1006C00010B586B000230293039304930593026848
:1006D000174B9A4201D006B010BD03F5EC33DA692E
:1006E00042F48042DA61DA6902F480420092009AB0
:1006F0009A6942F008029A619B6903F0080301932A
:10070000019B4FF420430293022303930323059399
:10071000084C02A9204600F0FDFB4FF480430293F1
:1007200000230393049302A9204600F0F3FBD2E7D1
:1007300000380040000C0140002800F0A18038B5CE
:10074000044690F82030D3B12268136843F00103C7
:10075000136000F0DBF8054623685A6812F0010FB9
:1007600010D100F0D3F8401B0A28F5D9636A43F48E
:1007700000336362052384F82030012038BDFFF781
:1007800065FFE1E71A6822F002021A6000F0BEF885
:10079000054623685A6812F0020F0DD000F0B6F833
:1007A000401B0A28F5D9636A43F4003363620523CA
:1007B00084F820300120E1E7227E012A3DD01A682A
:1007C00022F080021A60637E012B3BD022681368FE
:1007D00023F040031360A37E012B39D022681368F5
:1007E00023F020031360E37E012B37D022681368C7
:1007F00043F010031360237F012B35D02268136868
:1008000023F008031360637F012B33D02268136841
:1008100023F004031360A368E268134322691343BF
:10082000626913436268013A21681343CB61002077
:100830006062012384F82030A0E71A6842F0800249
:100840001A60C0E72268136843F040031360C2E7F0
:100850002268136843F020031360C4E7226813681A
:1008600023F010031360C6E72268136843F00803FF
:100870001360C8E72268136843F004031360CAE7F3
:100880000120704710B504460E4B18784FF47A7368
:10089000B3FBF0F30C4A1068B0FBF3F000F0A6FCD9
:1008A00068B90F2C01D901200AE0002221464FF03F
:1008B000FF3000F063FC054B1C60002000E00120CD
:1008C00010BD00BF200000202800002024000020D0
:1008D00008B5074A136843F010031360032000F0C3
:1008E0003BFC0F20FFF7CEFFFFF786FE002008BD80
:1008F00000200240034A1168034B1B780B4413602D
:10090000704700BF2403002020000020014B18681E
:10091000704700BF2403002082B0084B1B68084AC0
:10092000A2FB03235B0A00FB03F3019300BF019BBF
:100930005A1E0192002BF9D102B070472800002006
:10094000D34D6210002800F0F18170B582B00446EA
:10095000036813F0010F2CD0994B5B6803F00C0374
:10096000042B1DD0964B5B6803F00C03082B12D0B0
:100970006368B3F5803F41D0002B55D103F180432C
:1009800003F504331A6822F480321A601A6822F4DC
:1009900080221A6037E08A4B5B6813F4803FE7D00F
:1009A000874B1B6813F4003F03D06368002B00F0F3
:1009B000BF81236813F0020F75D0814B5B6813F081
:1009C0000C0F5FD07E4B5B6803F00C03082B54D0F8
:1009D0002369002B00F08A807A4B01221A60FFF70E
:1009E00095FF0546764B1B6813F0020F75D1FFF794
:1009F0008DFF401B0228F5D903209EE1704A136841
:100A000043F480331360636843B3FFF77FFF054609
:100A10006B4B1B6813F4003FCBD1FFF777FF401BF4
:100A20006428F5D9032088E1B3F5A02F09D0644BE1
:100A30001A6822F480321A601A6822F480221A603E
:100A4000E1E703F18043A3F53C331A6842F48022C6
:100A50001A601A6842F480321A60D4E7FFF756FF32
:100A60000546574B1B6813F4003FA2D0FFF74EFF1B
:100A7000401B6428F5D903205FE1514B5B6813F4F8
:100A8000803FA5D14E4B1B6813F0020F03D02369A2
:100A9000012B40F04F814A4A136823F0F803616943
:100AA00043EAC1031360236813F0080F33D0A3692E
:100AB000002B5CD0434B0122C3F88024FFF726FFB4
:100AC00005463F4B5B6A13F0020F21D1FFF71EFF73
:100AD000401B0228F5D903202FE1394A136823F07F
:100AE000F803616943EAC1031360DCE7354B002278
:100AF0001A60FFF70BFF0546314B1B6813F0020F1E
:100B0000D1D0FFF703FF401B0228F5D9032014E1E1
:100B10000120FFF701FF236813F0040F00F0968017
:100B2000274BDB6913F0805F34D1254BDA6942F043
:100B30008052DA61DB6903F080530193019B012548
:100B4000214B1B6813F4807F26D0E368012B3DD036
:100B5000002B53D103F1804303F504331A6A22F0CA
:100B600001021A621A6A22F004021A6233E0154B7B
:100B70000022C3F88024FFF7C9FE0546104B5B6ACC
:100B800013F0020FC7D0FFF7C1FE401B0228F5D9B2
:100B90000320D2E00025D3E70B4A136843F48073A7
:100BA0001360FFF7B3FE0646074B1B6813F4807F04
:100BB000CBD1FFF7ABFE801B6428F5D90320BCE046
:100BC0000010024000004242007000405F4A136A79
:100BD00043F001031362E36833B3FFF797FE064661
:100BE0005A4B1B6A13F0020F2FD1FFF78FFE801BA9
:100BF00041F288339842F3D903209EE0052B09D0B7
:100C0000524B1A6A22F001021A621A6A22F0040296
:100C10001A62E0E74D4B1A6A42F004021A621A6A3D
:100C200042F001021A62D6E7FFF770FE0646474B14
:100C30001B6A13F0020F08D0FFF768FE801B41F219
:100C400088339842F3D9032077E0E5B9E369002BB4
:100C500072D03E4A526802F00C02082A56D0022B8B
:100C600017D03B4B00221A66FFF750FE0446374B65
:100C70001B6813F0007F47D0FFF748FE001B0228D7
:100C8000F5D9032059E0314AD36923F08053D36169
:100C9000DCE72F4B00221A66FFF738FE05462B4B88
:100CA0001B6813F0007F06D0FFF730FE401B0228C0
:100CB000F5D9032041E0236AB3F5803F1AD02349D8
:100CC0004B6823F47413226A606A024313434B6037
:100CD0001F4B01221A66FFF719FE04461B4B1B68C7
:100CE00013F0007F0ED1FFF711FE001B0228F5D98B
:100CF000032022E0154A536823F40033A1680B4314
:100D00005360DCE7002018E0002016E0012B16D02D
:100D10000E4B5B6803F48031226A914211D103F4D7
:100D20007013626A93420ED1002006E001207047E2
:100D3000012002E0012000E0002002B070BD01208F
:100D4000FBE70120F9E70120F7E700BF00100240B0
:100D5000000042420F4B5B6803F00C02082A01D0EE
:100D60000D487047C3F383420C49885C13F4803FFD
:100D70000BD0084B5B68C3F34043094AD35C064A77
:100D800002FB00F0B0FBF3F07047064B03FB00F0F2
:100D9000704700BF0010024000127A004C27000884
:100DA0005C27000800093D00002800F0A08070B515
:100DB0000D460446524B1B6803F007038B420BD2CF
:100DC0004F4A136823F007030B431360136803F0C3
:100DD00007038B4240F08D80236813F0020F17D079
:100DE00013F0040F04D0474A536843F4E0635360A0
:100DF000236813F0080F04D0424A536843F4605349
:100E00005360404A536823F0F003A1680B435360DA
:100E1000236813F0010F31D06368012B20D0022B1F
:100E200025D0384A126812F0020F64D035494A685A
:100E300022F0030213434B60FFF768FD0646314B77
:100E40005B6803F00C036268B3EB820F16D0FFF708
:100E50005DFD801B41F288339842F0D9032045E0C4
:100E6000284A126812F4003FE0D101203EE0254AF2
:100E7000126812F0007FD9D1012037E0204B1B68A7
:100E800003F00703AB420AD91D4A136823F0070396
:100E90002B431360136803F00703AB422DD1236883
:100EA00013F0040F06D0174A536823F4E063E16897
:100EB0000B435360236813F0080F07D0114A53689F
:100EC00023F46053216943EAC1035360FFF742FFF3
:100ED0000C4B5B68C3F303130B4AD35CD8400B4B3A
:100EE00018600B4B1868FFF7CDFC002070BD012087
:100EF00070470120FAE70120F8E70120F6E700BF7C
:100F00000020024000100240602700082800002056
:100F10002400002070B582B00024A446A6E0804DD5
:100F2000AA4210D007D97F4DAA420CD005F58035D2
:100F3000AA4208D013E0A5F58015AA4203D005F512
:100F40007025AA4207D18A68002A58D0012A51D0B8
:100F50004361082403E0A5F58015AA42F3D0BEF151
:100F6000FF0F4ED80646BEF1FF0F4CD84FEA8C0259
:100F700033680F25954023EA050304FA02F2134370
:100F800033604B6813F0805F6ED0674B9A6942F014
:100F900001029A619B6903F001030193019B4FEAEF
:100FA0009C02951C614B53F825600CF003039D00D7
:100FB0000F23AB4026EA03065D4B984229D003F588
:100FC0008063984200F08E8003F58063984200F0C1
:100FD0008B8003F58063984219D004231AE0CC6813
:100FE000BDE7CC680434BAE7CC680834B7E7CC680E
:100FF0000C34B4E703610824B1E70024AFE704240C
:10100000ADE7061DAFE7ACF108029200B0E703239D
:1010100000E00023AB4033430232444D45F8223018
:101020004B6813F4801F61D0424A936843EA0E0371
:1010300093604B6813F4001F5ED03E4AD36843EAC6
:101040000E03D3604B6813F4003F5BD0394A5368FA
:1010500043EA0E0353604B6813F4803F58D0354A7F
:10106000136843EA0E0313600CF1010C0A6832FAAC
:101070000CF353D0012303FA0CF302EA030E33EA14
:101080000202F1D14A68122A3FF649AF122A3FF60E
:1010900066AF01A555F822F0470F0008DF0F0008E2
:1010A000E90F0008FB0F00085F0F00085F0F000842
:1010B0005F0F00085F0F00085F0F00085F0F000858
:1010C0005F0F00085F0F00085F0F00085F0F000848
:1010D0005F0F00085F0F00085F0F0008E30F0008B4
:1010E000EF0F0008012395E7022393E7114A936865
:1010F00023EA0E0393609CE70E4AD36823EA0E03AB
:10110000D3609FE70B4A536823EA0E035360A2E7BC
:10111000084A136823EA0E031360A5E702B070BD06
:1011200000002210000031100010024000000140B9
:1011300000080140000401400AB101617047090440
:1011400001617047C36801EA030221EA030141EA31
:101150000241016170470000074AD36823F4E0634D
:101160001B041B0C000200F4E060034343F0BF6368
:1011700043F40033D360704700ED00E000B5194B35
:10118000DB68C3F30223C3F1070CBCF1040F28BFD3
:101190004FF0040C03F1040EBEF1060F18D9033B07
:1011A0004FF0FF3E0EFA0CFC21EA0C0199400EFABA
:1011B00003F322EA0303194300280BDB0901C9B238
:1011C00000F1604000F5614080F800135DF804FB19
:1011D0000023E5E700F00F000901C9B2024B1954E2
:1011E000F4E700BF00ED00E014ED00E00138B0F1DD
:1011F000807F0BD24FF0E0235861054AF02182F83E
:1012000023100020986107221A617047012070475F
:1012100000ED00E0002856D010B50446436A33B90B
:101220004368B3F5827F05D00023C36102E0002349
:10123000036143610023A36294F85130002B3CD03A
:10124000022384F851302268136823F040031360AE
:10125000636803F48273A26802F404421343E268F1
:1012600002F400621343226902F00202134362692E
:1012700002F001021343A26902F400721343E2690F
:1012800002F038021343226A02F080021343A26A7A
:1012900002F40052216813430B60638B226803F051
:1012A000040353602268D36923F40063D3610020F0
:1012B0006065012384F8513010BD84F85030204619
:1012C000FFF7FEF9BCE701207047704700F1080303
:1012D00043604FF0FF328260C3600361002303600C
:1012E000704700230361704743684B609A688A60C7
:1012F000516099600861036801330360704730B43E
:101300000D68B5F1FF3F11D000F108031C465B6882
:101310001A68AA42FAD963684B6099608C60616070
:10132000086103680133036030BC70470469F2E769
:101330000369416882688A60416851605A688242E4
:1013400006D0002202611A68013A1A6018687047D4
:1013500082685A60F5E710B5044601F0C3F8A26B45
:10136000E36B9A4204D0002401F0DEF8204610BD61
:101370000124F9E770B504461546866B026C5AB92C
:1013800003681BB100200136A66370BD806800F0C1
:101390008BFE0023A360F6E76DB94068FEF720FFDF
:1013A000226C636813446360A268934219D3236874
:1013B00063602846E7E7C068FEF712FF226C5142DF
:1013C000E3689B1AE3602268934202D2A3680B444D
:1013D000E360022D01D00020D5E726B1013E0020B8
:1013E000D1E72846CFE70020CDE738B5054601F024
:1013F00079F895F8454064B201E0013C64B2002CF4
:101400000ADD6B6A43B105F1240000F0A3FD00285A
:10141000F3D000F033FEF0E7FF2385F8453001F00C
:1014200083F801F05FF895F8444064B201E0013CB4
:1014300064B2002C0ADD2B6943B105F1100000F005
:1014400089FD0028F3D000F019FEF0E7FF2385F8AE
:10145000443001F069F838BD38B5E0B10D460446B6
:1014600001F040F82368E26B216C01FB0230A060C0
:101470000020A0636360013A02FB0133E360FF23B5
:1014800084F8443084F84530FDB9236963B901F02C
:101490004BF8012038BD4FF0500383F31188BFF3A0
:1014A0006F8FBFF34F8FFEE704F1100000F052FD85
:1014B0000028ECD04FF0E0234FF08052C3F8042D09
:1014C000BFF34F8FBFF36F8FE1E704F11000FFF719
:1014D000FDFE04F12400FFF7F9FED8E710B503463E
:1014E00002980C4631B90060C36304640121FFF720
:1014F000B3FF10BD0260F7E740B94FF0500383F32C
:101500001188BFF36F8FBFF34F8FFEE710B584B024
:101510001C46844653B192B189B94FF0500383F30E
:101520001188BFF36F8FBFF34F8FFEE74FF050036B
:1015300083F31188BFF36F8FBFF34F8FFEE76AB15C
:1015400048230393039B482B13D04FF0500383F39E
:101550001188BFF36F8FBFF34F8FFEE70029EFD0E5
:101560004FF0500383F31188BFF36F8FBFF34F8F9A
:10157000FEE7039B012384F8463000949DF8183061
:101580006046FFF7ABFF204604B010BD40B94FF0F6
:10159000500383F31188BFF36F8FBFF34F8FFEE7C4
:1015A000F0B583B00D461446064601FB00F0483006
:1015B00000F088FE074650B1002380F846300090C6
:1015C000234600F1480229463046FFF787FF384698
:1015D00003B0F0BDF0B585B0019288B10F461D464D
:1015E0000446B1B1022D20D1E36B012B1DD04FF089
:1015F000500383F31188BFF36F8FBFF34F8FFEE764
:101600004FF0500383F31188BFF36F8FBFF34F8FF9
:10161000FEE7036C002BE5D04FF0500383F31188F5
:10162000BFF36F8FBFF34F8FFEE700F02DFD06462F
:1016300058B9019B002B48D04FF0500383F3118819
:10164000BFF36F8FBFF34F8FFEE700263DE02A46C2
:1016500039462046FFF78EFE636A7BB948B14FF0EA
:10166000E0234FF08052C3F8042DBFF34F8FBFF338
:101670006F8F00F059FF012005B0F0BD04F1240088
:1016800000F068FC0028F4D04FF0E0234FF08052C7
:10169000C3F8042DBFF34F8FBFF36F8FE9E700F05E
:1016A00043FF0020E8E702A800F09AFC012619E0B9
:1016B000002384F8443021E0002384F8453023E0FF
:1016C0002046FFF792FE00F03FFB00F00BFFA26BFD
:1016D000E36B9A42BBD3022DB9D0019B002BDED025
:1016E000002EE0D000F020FF00F09AFA00F0FAFEA1
:1016F00094F8442052B2B2F1FF3FD9D094F845207B
:1017000052B2B2F1FF3FD7D000F00EFF01A902A8FC
:1017100000F072FCD8B92046FFF71DFE0028CFD09C
:10172000019904F1100000F0FDFB2046FFF75DFE7B
:1017300000F00AFB0028C8D14FF0E0234FF08052A0
:10174000C3F8042DBFF34F8FBFF36F8FBDE7204663
:10175000FFF74BFE00F0F8FA00208DE748B108B51E
:10176000002181600160C1600B460A46FFF732FF2D
:1017700008BD704710B5024600210120FFF706FFA3
:101780000446FFF7EBFF204610BD10B582B00B46B4
:101790000090002211460120FFF7AEFE0446FFF73D
:1017A000DDFF204602B010BD084B1B681B6823B943
:1017B000074B4FF0FF321A607047044B1B68DB6821
:1017C000DB685A68024B1A60704700BF2C03002088
:1017D000000400202DE9F04707469846089DDDF8F3
:1017E00024900A9C266B02F18042013A06EB8206A5
:1017F00026F0070600293AD08E464FF0000CBCF1C7
:101800000F0F0BD81EF80C2004EB0C0383F83420C8
:101810001EF80C3013B10CF1010CF0E7002384F832
:101820004330062D00D90625E56265644FF0000AB5
:10183000C4F848A0201DFFF754FD04F11800FFF77D
:1018400050FD2461C5F10705A5616462C4F84CA090
:1018500084F850A042463946304600F01FFE206012
:10186000B9F1000F01D0C9F80040BDE8F0870023AE
:1018700084F83430D5E7000038B5002407E004EBE5
:10188000840293000E481844FFF720FD0134062C13
:10189000F5D90C4D2846FFF719FD0B4C2046FFF7F4
:1018A00015FD0A48FFF712FD0948FFF70FFD09482B
:1018B000FFF70CFD084B1D60084B1C6038BD00BFD6
:1018C00034030020D4030020E80300200C0400208F
:1018D00038040020240400202C03002030030020C2
:1018E00010B5044600F0FEFD214A13680133136071
:1018F000204B1B685BB1204B1B686BB91D4B1B68F1
:10190000DA6AE36A9A4207D81A4B1C6004E0194B62
:101910001C601368012B28D0184A13680133136028
:10192000E06A01238340164A11680B43136000EB01
:101930008000211D134B03EB8000FFF7D5FC00F066
:10194000F3FD0D4B1B687BB10A4B1B68DA6AE36A37
:101950009A4209D24FF0E0234FF08052C3F8042D91
:10196000BFF34F8FBFF36F8F10BDFFF785FFD3E736
:10197000C00300202803002020040020CC03002006
:10198000D00300203403002010B5044690F85130F5
:1019900063B1012B11D0022B0ED04FF0500383F313
:1019A0001188BFF36F8FBFF34F8FFEE7006B00F01E
:1019B00007FD204600F004FD10BD00F001FDFBE72F
:1019C0000F4B1B68D3B110B500F08CFD0D4BDB68DD
:1019D000DC68201DFFF7ACFC0B4A1368013B136069
:1019E000074A1368013B136000F09EFD2046FFF795
:1019F000CBFF034B1B68002BE6D110BD704700BF27
:101A0000C403002038040020C003002008B5FFF7FD
:101A1000D7FF074B1B68012BF9D94FF0E0234FF09C
:101A20008052C3F8042DBFF34F8FBFF36F8FEEE7E3
:101A30003403002070B504460D461D4B1E681D4B37
:101A400018680430FFF774FC50B91A4B1B68DA6A47
:101A5000012303FA02F218490B6823EA02030B6020
:101A6000B4F1FF3F0DD03444124B1B685C60A642BA
:101A700010D9124B18680F4B19680431FFF73FFC5F
:101A800070BD002DEFD00B4B196804310C48FFF7E7
:101A90002BFCF5E70B4B1868064B19680431FFF770
:101AA0002EFC094B1B68A342EAD9074B1C60E7E7F1
:101AB0004C04002028030020D00300203003002025
:101AC000240400202C0300200004002030B587B03F
:101AD0000B9C7CB10C9DB5B154250495049D542DEF
:101AE0001AD04FF0500383F31188BFF36F8FBFF309
:101AF0004F8FFEE74FF0500383F31188BFF36F8FD2
:101B0000BFF34F8FFEE74FF0500383F31188BFF30D
:101B10006F8FBFF34F8FFEE7049D0C9D2C63022453
:101B200085F8514000240394029505AC01940A9C69
:101B30000094FFF74FFE0C98FFF7D2FE059807B010
:101B400030BD2DE9F04385B00746884614461E4651
:101B5000900000F0B7FB00B38146542000F0B2FBC8
:101B60000546B0B1C0F83090E5B1002385F851309A
:101B7000039302950D9B01930C9B009333462246E1
:101B800041463846FFF726FE2846FFF7A9FE01200A
:101B900005E0484600F014FCE6E74FF0FF3005B0E2
:101BA000BDE8F0834FF0FF30F9E7000010B588B0D2
:101BB00000240594069407AA06A905A8FEF7FEFCD2
:101BC000059B0293069B019300942346079A0E49B6
:101BD0000E48FFF77BFF0E4B186090B14FF050039B
:101BE00083F31188BFF36F8FBFF34F8F094B4FF013
:101BF000FF321A60084B01221A60084B1C6000F08B
:101C0000FBFC08B010BD00BF702700080D1A0008CB
:101C1000FC03002000040020200400204C040020CD
:101C2000024A136801331360704700BFC8030020E5
:101C3000F8B53A4B1B68002B69D1394B1D6801354B
:101C40001D60C5B9374B1B681B6843B14FF050038B
:101C500083F31188BFF36F8FBFF34F8FFEE7314AD5
:101C60001168314B186810601960304A13680133ED
:101C70001360FFF799FD2E4B1B68AB423DD900273F
:101C80002C4B1B68DB6A03EB83039A002A4B9B589F
:101C9000012B00D90127294B1B68002B3CD00127C1
:101CA0003AE001271F4B1B681B6843B31D4B1B68A1
:101CB000DB68DC6863689D4226D3261D3046FFF74B
:101CC00037FBA36A1BB104F11800FFF731FBE36A8D
:101CD00001229A401A49086802430A6003EB830311
:101CE0009A00314614481044FFF7FEFAE26A114B9D
:101CF0001B68DB6A9A42D4D2D4E70027D2E70C4BA8
:101D00004FF0FF321A60BBE7094A1360B8E70D4A8B
:101D100013680133136000273846F8BDC80300205C
:101D20004C0400202C030020300300200404002079
:101D30000004002028030020340300205004002069
:101D4000D00300200804002038B5354B1B6843B988
:101D50004FF0500383F31188BFF36F8FBFF34F8FA2
:101D6000FEE700F0BFFB2E4B1A68013A1A601B68B1
:101D7000002B4FD12B4B1B680BB900244BE00024E8
:101D8000294B1B681BB3284BDB68DC6804F1180087
:101D9000FFF7CEFA251D2846FFF7CAFAE06A0123AD
:101DA0008340224A11680B43136000EB80002946F0
:101DB0001F4B03EB8000FFF797FAE26A1D4B1B688D
:101DC000DB6A9A42DCD31C4B01221A60D8E70CB1C3
:101DD000FFF7EAFC194B1C6884B9174B1C68D4B197
:101DE0004FF0E0234FF08052C3F8042DBFF34F8F24
:101DF000BFF36F8F01240EE0013C07D0FFF718FFFF
:101E00000028F9D00C4B01221A60F5E70B4B002299
:101E10001A60E2E7002400F087FB204638BD00BFCF
:101E2000C8030020C00300200C040020D0030020C1
:101E30003403002028030020500400200804002060
:101E400010B5A8B10446104B1B6843B14FF05003C6
:101E500083F31188BFF36F8FBFF34F8FFEE7FFF758
:101E6000DFFE00212046FFF7E5FDFFF76DFF48B9D3
:101E70004FF0E0234FF08052C3F8042DBFF34F8F93
:101E8000BFF36F8F10BD00BFC8030020204B1B683D
:101E90001BB1204B01221A6070471E4B00221A60B2
:101EA0001D4B1B68B3FA83F3DBB2C3F11F0303EBD3
:101EB00083018A0019498A5842B94FF0500383F3CD
:101EC0001188BFF36F8FBFF34F8FFEE7134903EB0A
:101ED000830082000A4450684068506003EB830C22
:101EE0004FEA8C0208321144884209D003EB830385
:101EF0009A000A4B13445B68DA68094B1A60704712
:101F0000406862469100054A0A445060EEE700BF0F
:101F1000C803002050040020D00300203403002018
:101F20002803002058B110B50C46094A1168183131
:101F3000FFF7E5F901212046FFF77CFD10BD4FF0CA
:101F4000500383F31188BFF36F8FBFF34F8FFEE70A
:101F50002803002038B5C368DC6824B304F11805F1
:101F60002846FFF7E5F9184B1B682BBB251D2846B3
:101F7000FFF7DEF9E06A01238340144A11680B433E
:101F8000136000EB80002946114B03EB8000FFF744
:101F9000ABF9E26A0F4B1B68DB6A9A4211D9012048
:101FA0000D4B186038BD4FF0500383F31188BFF319
:101FB0006F8FBFF34F8FFEE729460848FFF794F96C
:101FC000E7E70020EEE700BFC8030020D0030020B1
:101FD0003403002028030020500400200C040020BB
:101FE000034B1B680360034B1B684360704700BFD3
:101FF000040400204C040020D8B170B50C460546FE
:1020000001B300F06FFA1B4B19686B68C81A22689D
:10201000B2F1FF3F27D0184E3668D5F800C0B4455E
:1020200001D08B4224D9824215D800232360012499
:102030001AE04FF0500383F31188BFF36F8FBFF3A3
:102040004F8FFEE74FF0500383F31188BFF36F8F7C
:10205000BFF34F8FFEE75B1A134423602846FFF758
:10206000BFFF002400E0002400F05EFA204670BDAF
:102070000124F9E74C04002004040020014B012254
:102080001A60704750040020054B1B6833B1054BA4
:102090001B680BB100207047022070470120704779
:1020A00020040020C803002000284CD038B5044686
:1020B000274B1B68834208D04FF0500383F31188ED
:1020C000BFF36F8FBFF34F8FFEE7836C43B94FF0C1
:1020D000500383F31188BFF36F8FBFF34F8FFEE779
:1020E000013B8364C16A426C91422ED00BB1002047
:1020F00038BD051D2846FFF71BF970B9E26A02EBEF
:1021000082039B001349CB583BB9012303FA02F227
:1021100011490B6823EA02030B60606CE062C0F1B6
:102120000703A361012404FA00F30B4A11680B436F
:10213000136000EB80002946064B03EB8000FFF79D
:10214000D3F82046D4E7002070470020D0E700BF36
:102150002803002034030020D0030020842801D06D
:10216000033070470020704708B5FFF71FFD0020BF
:1021700008BD2DE9F04387B004460F464569BDB15F
:102180008669AEB1D0F80480D0F80090B0F90800AC
:10219000FFF7E4FF0296019500903B46226949460D
:1021A0004046FFF793FC0590059807B0BDE8F08323
:1021B00065682668D4F81080B4F90800FFF7CEFFF0
:1021C00005AB019300903B461FFA88F23146284642
:1021D000FFF7B7FC0128E7D00020E6E708B500B913
:1021E0000120FFF72DFE002008BD08B5416819B198
:1021F0000120FFF7CAFA08BD0120FFF7BBFAFAE792
:10220000124A12F0070F1ED0D11D21F00701C1F5AF
:10221000406313440A460E480260002141601344A3
:10222000083B23F007030B48036059601960991AB3
:1022300051601360084B1960084B1960084B4FF050
:1022400000421A6070474FF44063E4E758040020EE
:102250006C10002054040020601000205C1000204E
:1022600058100020154B1A461B688342FBD3516857
:1022700002EB010C844509D0416800EB010C634579
:1022800009D00360904218D0106070474068014444
:1022900051601046F0E710B4094C2468A3420AD0FC
:1022A0005B681944416013681B680360904200D06A
:1022B000106010BC70470460F8E770476C10002095
:1022C0005404002070B50546FFF7AAFC364B1B6886
:1022D000A3B1364B1B681D424ED135B1083515F000
:1022E000070F02D025F007050835002D46D0304BEA
:1022F0001B68AB4251D32F4A146804E0FFF780FFFC
:10230000E7E722461C466368AB4202D22368002BF3
:10231000F7D1254B1B68A34241D0166808362368C5
:10232000136063685B1B102B10D9601910F0070F46
:1023300008D04FF0500383F31188BFF36F8FBFF3C2
:102340004F8FFEE743606560FFF78CFF62681849B6
:102350000B689B1A0B60184909688B4201D2164919
:102360000B60124B1B681343636000232360134A06
:1023700013680133136002E0002600E00026FFF737
:10238000E3FC16F0070F0CD04FF0500383F31188D5
:10239000BFF36F8FBFF34F8FFEE70026EFE70026F6
:1023A000EDE7304670BD00BF5404002058100020F7
:1023B0005C1000206C1000206010002064100020D1
:1023C000002834D038B50446A0F1080550F8043C84
:1023D000174A1268134208D14FF0500383F3118853
:1023E000BFF36F8FBFF34F8FFEE750F8081C41B16A
:1023F0004FF0500383F31188BFF36F8FBFF34F8FFC
:10240000FEE723EA020340F8043CFFF709FC54F816
:10241000041C084A13680B4413602846FFF722FF88
:10242000054A136801331360FFF78EFC38BD70470F
:10243000581000205C1000206810002082B000239B
:1024400001930D4B1B68B3F1FF3F08D04FF05003D1
:1024500083F31188BFF36F8FBFF34F8FFEE74FF009
:10246000500383F31188BFF36F8FBFF34F8F019B2E
:10247000002BFCD002B070472C00002006480068FA
:10248000006880F3088862B661B6BFF34F8FBFF370
:102490006F8F00DF00BF000008ED00E04FF0807399
:1024A00040F8043C21F0010140F8081C034B40F8BF
:1024B0000C3C40F8202C4038704700BF3D240008F9
:1024C000074B19680868B0E8F00F80F30988BFF37C
:1024D0006F8F4FF0000080F311884EF00D0E7047A3
:1024E000280300204FF0500383F31188BFF36F8F50
:1024F000BFF34F8F0B4A136801331360012B00D0D9
:1025000070474FF0E023D3F8043D13F0FF0FF7D0EE
:102510004FF0500383F31188BFF36F8FBFF34F8FDA
:10252000FEE700BF2C000020094B1B6843B94FF0A9
:10253000500383F31188BFF36F8FBFF34F8FFEE714
:10254000013B034A13600BB983F31188704700BF46
:102550002C0000200000000000000000000000002F
:10256000EFF30980BFF36F8F0D4B1A6820E9F00F6E
:1025700010602DE908404FF0500080F31188FFF7FC
:1025800085FC4FF0000080F31188BDE80840196811
:102590000868B0E8F00F80F30988BFF36F8F7047C9
:1025A0002803002008B54FF0500383F31188BFF3D0
:1025B0006F8FBFF34F8FFFF73BFB28B14FF0E02346
:1025C0004FF08052C3F8042D002383F3118808BD17
:1025D0004FF0E022002313619361054B1B6805490E
:1025E000A1FB03139B09013B536107231361704750
:1025F00028000020D34D621010B582B02A4B1A7803
:10260000D2B20192FF221A701B78DBB28DF8033030
:102610009DF8033003F05003244A1370244B072223
:102620001A6009E0224A1368013B13609DF80330E9
:102630005B00DBB28DF803309DF8033013F0800FA0
:10264000F0D11B4B1B68032B08D04FF0500383F3D2
:102650001188BFF36F8FBFF34F8FFEE71B02144A41
:10266000136003F4E0631360019BDBB20E4A137046
:102670004FF0E023D3F8202D42F47002C3F8202D50
:10268000D3F8202D42F07042C3F8202DFFF7A0FFB1
:102690000024084B1C60FFF7F1FEFFF7F7FBFFF784
:1026A000CDFE204602B010BD00E400E07410002012
:1026B000781000202C000020FEF707FE0B480C4984
:1026C0000C4A002302E0D458C4500433C4188C428E
:1026D000F9D3094A094C002301E013600432A242F5
:1026E000FBD3FDF759FDFDF741FF704700000020C7
:1026F0003000002080270008300000207C100020DF
:10270000FEE70000F8B500BFF8BC08BC9E46704765
:0C271000F8B500BFF8BC08BC9E4670473E
:10271C0040270008710400080000000000000000C1
:10272C00800000000000000000000000000000001D
:10273C000000000064656661756C745461736B0015
:10274C0002030405060708090A0B0C0D0E0F1010E6
:10275C000102000000000000000000000102030460
:0C276C000607080949444C450000000025
:0427780079010008DB
:04277C0051010008FF
:10278000000C0140000200001400002000000000C6
:1027900078000020F1030008E9030008E1030008C5
:1027A000010000001000000000127A00AAAAAAAAE4
:04000005080026B910
:00000001FF
