:020000040800F2
:1000000000500020C91E00086D0400086F0400089D
:100010007104000873040008750400080000000063
:10002000000000000000000000000000D11C0008DB
:100030007704000800000000711D00087904000822
:10004000111F0008111F0008111F0008111F0008D0
:10005000111F0008111F0008111F0008111F0008C0
:10006000111F0008111F0008111F0008111F0008B0
:10007000111F0008111F0008111F0008111F0008A0
:10008000111F0008111F0008111F0008111F000890
:10009000111F0008111F0008111F0008111F000880
:1000A000111F0008111F0008111F0008111F000870
:1000B000111F0008111F0008111F0008111F000860
:1000C000111F0008111F0008111F0008111F000850
:1000D000111F0008111F0008111F0008111F000840
:1000E000111F0008111F0008111F00080000000068
:1000F0000000000000000000000000000000000000
:0C01000000000000000000005FF808F1A3
:100110000348044B834202D0034B03B11847704796
:1001200010000020100000200000000005480649D3
:100130000B1AD90F01EBA301491002D0034B03B1F5
:100140001847704710000020100000200000000039
:1001500010B5064C237843B9FFF7DAFF044B13B10F
:100160000448AFF300800123237010BD100000206D
:1001700000000000141F000808B5044B1BB104491F
:100180000448AFF30080BDE80840CFE7000000005E
:1001900014000020141F000870B50D4E0D4D761B85
:1001A000B61006D0002455F8043B01349847A64207
:1001B000F9D1094E094D01F0ADFE761BB61006D0FF
:1001C000002455F8043B01349847A642F9D170BD8C
:1001D000801F0008801F0008841F0008801F00087F
:1001E000830730B548D0541E002A3FD00346CAB218
:1001F00001E0013C3AD303F8012B9D07F9D1032C10
:100200002DD9CDB245EA05250F2C45EA054536D94D
:10021000A4F1100222F00F0C03F1200EE6444FEA85
:10022000121C03F1100242E9045542E90255103252
:100230007245F8D10CF1010214F00C0F03EB02121D
:1002400004F00F0C13D0ACF1040323F003030433C8
:10025000134442F8045B9342FBD10CF003042CB12D
:10026000CAB21C4403F8012B9C42FBD130BD64464A
:100270001346002CF4D1F9E703461446BFE71A46AB
:10028000A446E0E730B589B00024049405940694B0
:100290000794184B9A6942F020029A619A6902F019
:1002A00020020192019A9A6942F008029A619A69C1
:1002B00002F008020292029A9A6942F004029A61DC
:1002C0009B6903F004030393039B0B4D22464FF4F9
:1002D0009051284600F07CFE4FF490530493012384
:1002E000059306940223079304A9284600F05EFDB7
:1002F00009B030BD00100240000C014008B50B4CA5
:1003000001224FF40071204600F062FE4FF4FA60C3
:1003100001F072FB00224FF40071204600F058FEFD
:100320004FF4FA6001F068FBE9E700BF000C014000
:1003300072B6FEE708B50B480B4B03601023436011
:1003400000238360C3600361436103764376837651
:10035000C3760377437700F03BF900B908BDFFF798
:10036000E7FF00BF300000200064004008B50D48E2
:100370000D4B03604FF48273436000238360C360BE
:10038000036143614FF400728261C361036243629F
:1003900083620A23C36200F07FFE00B908BDFFF745
:1003A000C7FF00BF580000200038004000B591B0E2
:1003B0002822002106A8FFF713FF002301930293D0
:1003C0000393049305930223069301220A921022B9
:1003D0000B920D934FF4E0130F9306A800F0FEF973
:1003E00078B90F230193022302930023039304930C
:1003F0000593012101A800F023FC20B911B05DF89C
:1004000004FBFFF795FFFFF793FF000000B589B0ED
:1004100000F0AAF9FFF7CAFFFFF734FFFFF78AFFE2
:10042000FFF7A4FF0DF1040C084C0FCCACE80F0053
:1004300094E807008CE80700002101A801F0A7FA62
:10044000034B186001F09EFAFEE700BF2C1F000866
:100450002C000020034B0360034B0B6080231360D0
:10046000704700BFB0020020B0000020FEE7FEE7AA
:10047000FEE7FEE7FEE7704708B500F087F901F0F8
:100480006BFA012800D108BD01F094FCFBE70000E5
:1004900000B583B0114B9A6942F001029A619A69E2
:1004A00002F001020092009ADA6942F08052DA61A9
:1004B000DB6903F080530193019B00220F216FF051
:1004C000010000F09DFD064A536823F0E06343F00D
:1004D0000073536003B05DF804FB00BF00100240DE
:1004E0000000014010B586B00023029303930493EB
:1004F00005930268164B9A4201D006B010BD03F571
:10050000D633DA6942F00072DA61DA6902F0007219
:100510000092009A9A6942F004029A619B6903F082
:1005200004030193019B4FF400630293094C02A959
:10053000204600F03BFC4FF48053029302230393C8
:100540000323059302A9204600F030FCD5E700BF45
:10055000006400400008014010B586B000230293FB
:100560000393049305930268174B9A4201D006B097
:1005700010BD03F5EC33DA6942F48042DA61DA69DE
:1005800002F480420092009A9A6942F008029A614D
:100590009B6903F008030193019B4FF420430293EE
:1005A0000223039303230593084C02A9204600F07D
:1005B000FDFB4FF48043029300230393049302A9AD
:1005C000204600F0F3FBD2E700380040000C014069
:1005D000002800F0A18038B5044690F82030D3B14F
:1005E0002268136843F00103136000F0DBF805464E
:1005F00023685A6812F0010F10D100F0D3F8401BA5
:100600000A28F5D9636A43F400336362052384F84A
:100610002030012038BDFFF765FFE1E71A6822F0BE
:1006200002021A6000F0BEF8054623685A6812F00C
:10063000020F0DD000F0B6F8401B0A28F5D9636A06
:1006400043F400336362052384F820300120E1E79E
:10065000227E012A3DD01A6822F080021A60637E51
:10066000012B3BD02268136823F040031360A37E64
:10067000012B39D02268136823F020031360E37E36
:10068000012B37D02268136843F010031360237FD7
:10069000012B35D02268136823F008031360637FB1
:1006A000012B33D02268136823F004031360A3687E
:1006B000E268134322691343626913436268013A93
:1006C00021681343CB6100206062012384F820304D
:1006D000A0E71A6842F080021A60C0E72268136837
:1006E00043F040031360C2E72268136843F020031D
:1006F0001360C4E72268136823F010031360C6E791
:100700002268136843F008031360C8E7226813687F
:1007100043F004031360CAE70120704710B5044694
:100720000E4B18784FF47A73B3FBF0F30C4A106851
:10073000B0FBF3F000F09CFC68B90F2C01D901204C
:100740000AE0002221464FF0FF3000F059FC054B33
:100750001C60002000E0012010BD00BF0000002050
:10076000080000200400002008B5074A136843F081
:1007700010031360032000F031FC0F20FFF7CEFFC1
:10078000FFF786FE002008BD00200240034A1168E2
:10079000034B1B780B441360704700BF0403002019
:1007A00000000020014B1868704700BF04030020C0
:1007B00082B0084B1B68084AA2FB03235B0A00FBBC
:1007C00003F3019300BF019B5A1E0192002BF9D144
:1007D00002B0704708000020D34D6210002800F0DE
:1007E000F18170B582B00446036813F0010F2CD07C
:1007F000994B5B6803F00C03042B1DD0964B5B6890
:1008000003F00C03082B12D06368B3F5803F41D08E
:10081000002B55D103F1804303F504331A6822F409
:1008200080321A601A6822F480221A6037E08A4BFC
:100830005B6813F4803FE7D0874B1B6813F4003FDD
:1008400003D06368002B00F0BF81236813F0020F10
:1008500075D0814B5B6813F00C0F5FD07E4B5B68EB
:1008600003F00C03082B54D02369002B00F08A807E
:100870007A4B01221A60FFF795FF0546764B1B68FD
:1008800013F0020F75D1FFF78DFF401B0228F5D939
:1008900003209EE1704A136843F480331360636859
:1008A00043B3FFF77FFF05466B4B1B6813F4003F14
:1008B000CBD1FFF777FF401B6428F5D9032088E1EF
:1008C000B3F5A02F09D0644B1A6822F480321A6065
:1008D0001A6822F480221A60E1E703F18043A3F54D
:1008E0003C331A6842F480221A601A6842F480325B
:1008F0001A60D4E7FFF756FF0546574B1B6813F401
:10090000003FA2D0FFF74EFF401B6428F5D903201B
:100910005FE1514B5B6813F4803FA5D14E4B1B68E0
:1009200013F0020F03D02369012B40F04F814A4A94
:10093000136823F0F803616943EAC1031360236875
:1009400013F0080F33D0A369002B5CD0434B012276
:10095000C3F88024FFF726FF05463F4B5B6A13F080
:10096000020F21D1FFF71EFF401B0228F5D90320FB
:100970002FE1394A136823F0F803616943EAC103A0
:100980001360DCE7354B00221A60FFF70BFF0546CA
:10099000314B1B6813F0020FD1D0FFF703FF401B50
:1009A0000228F5D9032014E10120FFF701FF236895
:1009B00013F0040F00F09680274BDB6913F0805F83
:1009C00034D1254BDA6942F08052DA61DB6903F0F9
:1009D00080530193019B0125214B1B6813F4807FF9
:1009E00026D0E368012B3DD0002B53D103F1804387
:1009F00003F504331A6A22F001021A621A6A22F01D
:100A000004021A6233E0154B0022C3F88024FFF77A
:100A1000C9FE0546104B5B6A13F0020FC7D0FFF703
:100A2000C1FE401B0228F5D90320D2E00025D3E700
:100A30000B4A136843F480731360FFF7B3FE064656
:100A4000074B1B6813F4807FCBD1FFF7ABFE801BF5
:100A50006428F5D90320BCE00010024000004242A7
:100A6000007000405F4A136A43F001031362E368B9
:100A700033B3FFF797FE06465A4B1B6A13F0020F7B
:100A80002FD1FFF78FFE801B41F288339842F3D9B4
:100A900003209EE0052B09D0524B1A6A22F0010276
:100AA0001A621A6A22F004021A62E0E74D4B1A6ACF
:100AB00042F004021A621A6A42F001021A62D6E790
:100AC000FFF770FE0646474B1B6A13F0020F08D073
:100AD000FFF768FE801B41F288339842F3D9032068
:100AE00077E0E5B9E369002B72D03E4A526802F024
:100AF0000C02082A56D0022B17D03B4B00221A6654
:100B0000FFF750FE0446374B1B6813F0007F47D0B9
:100B1000FFF748FE001B0228F5D9032059E0314AAF
:100B2000D36923F08053D361DCE72F4B00221A6690
:100B3000FFF738FE05462B4B1B6813F0007F06D0ED
:100B4000FFF730FE401B0228F5D9032041E0236A5D
:100B5000B3F5803F1AD023494B6823F47413226AFB
:100B6000606A024313434B601F4B01221A66FFF772
:100B700019FE04461B4B1B6813F0007F0ED1FFF7D4
:100B800011FE001B0228F5D9032022E0154A536804
:100B900023F40033A1680B435360DCE7002018E026
:100BA000002016E0012B16D00E4B5B6803F4803159
:100BB000226A914211D103F47013626A93420ED1FA
:100BC000002006E001207047012002E0012000E043
:100BD000002002B070BD0120FBE70120F9E70120F1
:100BE000F7E700BF00100240000042420F4B5B6875
:100BF00003F00C02082A01D00D487047C3F383426A
:100C00000C49885C13F4803F0BD0084B5B68C3F33E
:100C10004043094AD35C064A02FB00F0B0FBF3F004
:100C20007047064B03FB00F0704700BF0010024006
:100C300000127A00541F0008641F000800093D00DC
:100C4000002800F0A08070B50D460446524B1B688A
:100C500003F007038B420BD24F4A136823F00703BC
:100C60000B431360136803F007038B4240F08D8041
:100C7000236813F0020F17D013F0040F04D0474A73
:100C8000536843F4E0635360236813F0080F04D003
:100C9000424A536843F460535360404A536823F018
:100CA000F003A1680B435360236813F0010F31D0A8
:100CB0006368012B20D0022B25D0384A126812F02D
:100CC000020F64D035494A6822F0030213434B6097
:100CD000FFF768FD0646314B5B6803F00C03626862
:100CE000B3EB820F16D0FFF75DFD801B41F2883316
:100CF0009842F0D9032045E0284A126812F4003FD8
:100D0000E0D101203EE0254A126812F0007FD9D1DF
:100D1000012037E0204B1B6803F00703AB420AD9E0
:100D20001D4A136823F007032B431360136803F075
:100D30000703AB422DD1236813F0040F06D0174AE6
:100D4000536823F4E063E1680B435360236813F0B6
:100D5000080F07D0114A536823F46053216943EA0E
:100D6000C1035360FFF742FF0C4B5B68C3F30313EF
:100D70000B4AD35CD8400B4B18600B4B1868FFF73D
:100D8000CDFC002070BD012070470120FAE7012052
:100D9000F8E70120F6E700BF002002400010024003
:100DA000681F0008080000200400002070B582B011
:100DB0000024A446A6E0804DAA4210D007D97F4D5A
:100DC000AA420CD005F58035AA4208D013E0A5F55B
:100DD0008015AA4203D005F57025AA4207D18A687A
:100DE000002A58D0012A51D04361082403E0A5F518
:100DF0008015AA42F3D0BEF1FF0F4ED80646BEF1D1
:100E0000FF0F4CD84FEA8C0233680F25954023EA38
:100E1000050304FA02F2134333604B6813F0805F5A
:100E20006ED0674B9A6942F001029A619B6903F0A8
:100E300001030193019B4FEA9C02951C614B53F8FF
:100E400025600CF003039D000F23AB4026EA030648
:100E50005D4B984229D003F58063984200F08E8064
:100E600003F58063984200F08B8003F5806398421D
:100E700019D004231AE0CC68BDE7CC680434BAE783
:100E8000CC680834B7E7CC680C34B4E703610824B5
:100E9000B1E70024AFE70424ADE7061DAFE7ACF1EE
:100EA00008029200B0E7032300E00023AB40334385
:100EB0000232444D45F822304B6813F4801F61D054
:100EC000424A936843EA0E0393604B6813F4001F91
:100ED0005ED03E4AD36843EA0E03D3604B6813F4F6
:100EE000003F5BD0394A536843EA0E0353604B68B6
:100EF00013F4803F58D0354A136843EA0E03136059
:100F00000CF1010C0A6832FA0CF353D0012303FAF6
:100F10000CF302EA030E33EA0202F1D14A68122A04
:100F20003FF649AF122A3FF666AF01A555F822F009
:100F3000DF0D0008770E0008810E0008930E0008F0
:100F4000F70D0008F70D0008F70D0008F70D000871
:100F5000F70D0008F70D0008F70D0008F70D000861
:100F6000F70D0008F70D0008F70D0008F70D000851
:100F7000F70D00087B0E0008870E0008012395E797
:100F8000022393E7114A936823EA0E0393609CE7D8
:100F90000E4AD36823EA0E03D3609FE70B4A5368D7
:100FA00023EA0E035360A2E7084A136823EA0E03FC
:100FB0001360A5E702B070BD0000221000003110E0
:100FC0000010024000000140000801400004014000
:100FD0000AB101617047090401617047074AD3688B
:100FE00023F4E0631B041B0C000200F4E0600343E5
:100FF00043F0BF6343F40033D360704700ED00E07B
:1010000000B5194BDB68C3F30223C3F1070CBCF135
:10101000040F28BF4FF0040C03F1040EBEF1060FBD
:1010200018D9033B4FF0FF3E0EFA0CFC21EA0C01ED
:1010300099400EFA03F322EA0303194300280BDB5D
:101040000901C9B200F1604000F5614080F8001369
:101050005DF804FB0023E5E700F00F000901C9B2C9
:10106000024B1954F4E700BF00ED00E014ED00E07E
:101070000138B0F1807F0BD24FF0E0235861054A70
:10108000F02182F823100020986107221A6170472E
:101090000120704700ED00E0002856D010B504464E
:1010A000436A33B94368B3F5827F05D00023C36137
:1010B00002E00023036143610023A36294F85130EE
:1010C000002B3CD0022384F851302268136823F0AF
:1010D00040031360636803F48273A26802F404425D
:1010E0001343E26802F400621343226902F0020231
:1010F0001343626902F001021343A26902F4007211
:101100001343E26902F038021343226A02F08002BC
:101110001343A26A02F40052216813430B60638BED
:10112000226803F0040353602268D36923F4006348
:10113000D36100206065012384F8513010BD84F82C
:1011400050302046FFF708FABCE70120704770478F
:1011500000F1080343604FF0FF328260C360036117
:1011600000230360704700230361704743684B60AE
:101170009A688A605160996008610368013303606E
:10118000704730B40D68B5F1FF3F11D000F108038E
:101190001C465B681A68AA42FAD963684B6099607A
:1011A0008C606160086103680133036030BC704784
:1011B0000469F2E70369416882688A6041685160A6
:1011C0005A68824206D0002202611A68013A1A6007
:1011D0001868704782685A60F5E70000084B1B6882
:1011E0001B6823B9074B4FF0FF321A607047044B5E
:1011F0001B68DB68DB685A68024B1A60704700BFE7
:101200000C030020E00300202DE9F0470746984634
:10121000089DDDF824900A9C266B02F18042013A79
:1012200006EB820626F0070600293AD08E464FF0DC
:10123000000CBCF10F0F0BD81EF80C2004EB0C03B4
:1012400083F834201EF80C3013B10CF1010CF0E7D8
:10125000002384F84330062D00D90625E562656435
:101260004FF0000AC4F848A0201DFFF77CFF04F1EE
:101270001800FFF778FF2461C5F10705A5616462D6
:10128000C4F84CA084F850A042463946304600F0DD
:1012900009FD2060B9F1000F01D0C9F80040BDE898
:1012A000F087002384F83430D5E7000038B50024F7
:1012B00007E004EB840293000E481844FFF748FF50
:1012C0000134062CF5D90C4D2846FFF741FF0B4C95
:1012D0002046FFF73DFF0A48FFF73AFF0948FFF7AE
:1012E00037FF0948FFF734FF084B1D60084B1C60AF
:1012F00038BD00BF14030020B4030020C803002041
:10130000EC03002018040020040400200C0300203B
:101310001003002010B5044600F0ECFC214A1368CD
:1013200001331360204B1B685BB1204B1B686BB90A
:101330001D4B1B68DA6AE36A9A4207D81A4B1C6095
:1013400004E0194B1C601368012B28D0184A13685D
:1013500001331360E06A01238340164A11680B438E
:10136000136000EB8000211D134B03EB8000FFF79F
:10137000FDFE00F0E1FC0D4B1B687BB10A4B1B68C6
:10138000DA6AE36A9A4209D24FF0E0234FF08052C2
:10139000C3F8042DBFF34F8FBFF36F8F10BDFFF75E
:1013A00085FFD3E7A00300200803002000040020ED
:1013B000AC030020B00300201403002010B5044645
:1013C00090F8513063B1012B11D0022B0ED04FF0A9
:1013D000500383F31188BFF36F8FBFF34F8FFEE786
:1013E000006B00F0F1FB204600F0EEFB10BD00F0BA
:1013F000EBFBFBE70F4B1B68D3B110B500F07AFC99
:101400000D4BDB68DC68201DFFF7D4FE0B4A136828
:10141000013B1360074A1368013B136000F08CFC2A
:101420002046FFF7CBFF034B1B68002BE6D110BD16
:10143000704700BFA403002018040020A003002070
:1014400008B5FFF7D7FF074B1B68012BF9D94FF001
:10145000E0234FF08052C3F8042DBFF34F8FBFF34A
:101460006F8FEEE71403002070B504460D461D4B48
:101470001E681D4B18680430FFF79CFE50B91A4BCC
:101480001B68DA6A012303FA02F218490B6823EA9F
:1014900002030B60B4F1FF3F0DD03444124B1B68C4
:1014A0005C60A64210D9124B18680F4B19680431C2
:1014B000FFF767FE70BD002DEFD00B4B19680431AC
:1014C0000C48FFF753FEF5E70B4B1868064B1968FD
:1014D0000431FFF756FE094B1B68A342EAD9074BBC
:1014E0001C60E7E72C04002008030020B003002064
:1014F00010030020040400200C030020E00300205F
:1015000030B587B00B9C7CB10C9DB5B154250495CA
:10151000049D542D1AD04FF0500383F31188BFF36C
:101520006F8FBFF34F8FFEE74FF0500383F31188A7
:10153000BFF36F8FBFF34F8FFEE74FF0500383F37E
:101540001188BFF36F8FBFF34F8FFEE7049D0C9D93
:101550002C63022485F8514000240394029505ACC5
:1015600001940A9C0094FFF74FFE0C98FFF7D2FEFF
:10157000059807B030BD2DE9F04385B00746884691
:1015800014461E46900000F0A1FA00B38146542094
:1015900000F09CFA0546B0B1C0F83090E5B10023E8
:1015A00085F85130039302950D9B01930C9B00939A
:1015B0003346224641463846FFF726FE2846FFF7C7
:1015C000A9FE012005E0484600F0FEFAE6E74FF0EC
:1015D000FF3005B0BDE8F0834FF0FF30F9E70000C1
:1015E00010B588B000240594069407AA06A905A89A
:1015F000FEF730FF059B0293069B01930094234660
:10160000079A0E490E48FFF77BFF0E4B186090B10A
:101610004FF0500383F31188BFF36F8FBFF34F8FE9
:10162000094B4FF0FF321A60084B01221A60084B39
:101630001C6000F0E9FB08B010BD00BF781F000877
:1016400041140008DC030020E00300200004002017
:101650002C040020024A136801331360704700BF56
:10166000A8030020F8B53A4B1B68002B69D1394B11
:101670001D6801351D60C5B9374B1B681B6843B138
:101680004FF0500383F31188BFF36F8FBFF34F8F79
:10169000FEE7314A1168314B186810601960304A12
:1016A000136801331360FFF799FD2E4B1B68AB42A3
:1016B0003DD900272C4B1B68DB6A03EB83039A00A0
:1016C0002A4B9B58012B00D90127294B1B68002B63
:1016D0003CD001273AE001271F4B1B681B6843B32E
:1016E0001D4B1B68DB68DC6863689D4226D3261DA2
:1016F0003046FFF75FFDA36A1BB104F11800FFF746
:1017000059FDE36A01229A401A49086802430A60B7
:1017100003EB83039A00314614481044FFF726FD7B
:10172000E26A114B1B68DB6A9A42D4D2D4E70027E5
:10173000D2E70C4B4FF0FF321A60BBE7094A136047
:10174000B8E70D4A13680133136000273846F8BD27
:10175000A80300202C0400200C030020100300200C
:10176000E4030020E003002008030020140300200D
:1017700030040020B0030020E803002038B5354BCA
:101780001B6843B94FF0500383F31188BFF36F8F89
:10179000BFF34F8FFEE700F0ADFA2E4B1A68013A07
:1017A0001A601B68002B4FD12B4B1B680BB9002410
:1017B0004BE00024294B1B681BB3284BDB68DC681B
:1017C00004F11800FFF7F6FC251D2846FFF7F2FC90
:1017D000E06A01238340224A11680B43136000EB47
:1017E000800029461F4B03EB8000FFF7BFFCE26A35
:1017F0001D4B1B68DB6A9A42DCD31C4B01221A602A
:10180000D8E70CB1FFF7EAFC194B1C6884B9174BF9
:101810001C68D4B14FF0E0234FF08052C3F8042D80
:10182000BFF34F8FBFF36F8F01240EE0013C07D051
:10183000FFF718FF0028F9D00C4B01221A60F5E7DA
:101840000B4B00221A60E2E7002400F075FA2046F4
:1018500038BD00BFA8030020A0030020EC03002037
:10186000B0030020140300200803002030040020EF
:10187000E803002010B5A8B10446104B1B6843B123
:101880004FF0500383F31188BFF36F8FBFF34F8F77
:10189000FEE7FFF7DFFE00212046FFF7E5FDFFF73B
:1018A0006DFF48B94FF0E0234FF08052C3F8042D8C
:1018B000BFF34F8FBFF36F8F10BD00BFA803002091
:1018C000204B1B681BB1204B01221A6070471E4B36
:1018D00000221A601D4B1B68B3FA83F3DBB2C3F11D
:1018E0001F0303EB83018A0019498A5842B94FF05C
:1018F000500383F31188BFF36F8FBFF34F8FFEE761
:10190000134903EB830082000A445068406850602A
:1019100003EB830C4FEA8C0208321144884209D051
:1019200003EB83039A000A4B13445B68DA68094BA4
:101930001A607047406862469100054A0A44506048
:10194000EEE700BFA803002030040020B003002011
:101950001403002008030020054B1B6833B1054B1E
:101960001B680BB1002070470220704701207047B0
:1019700000040020A8030020842801D00330704711
:101980000020704708B5FFF72BFE002008BD2DE9A9
:10199000F04387B004460F464569BDB18669AEB1D4
:1019A000D0F80480D0F80090B0F90800FFF7E4FF09
:1019B0000296019500903B46226949464046FFF752
:1019C0009FFD0590059807B0BDE8F083656826681F
:1019D000D4F81080B4F90800FFF7CEFF05AB0193EF
:1019E00000903B461FFA88F231462846FFF7C3FDB8
:1019F0000128E7D00020E6E708B500B90120FFF78D
:101A000039FF002008BD0000124A12F0070F1ED057
:101A1000D11D21F00701C1F5406313440A460E4869
:101A20000260002141601344083B23F007030B4888
:101A3000036059601960991A51601360084B19606E
:101A4000084B1960084B4FF000421A6070474FF482
:101A50004063E4E7380400204C10002034040020E8
:101A6000401000203C10002038100020154B1A4672
:101A70001B688342FBD3516802EB010C844509D0FB
:101A8000416800EB010C634509D00360904218D017
:101A9000106070474068014451601046F0E710B490
:101AA000094C2468A3420AD05B681944416013685A
:101AB0001B680360904200D0106010BC7047046047
:101AC000F8E770474C1000203404002070B505463C
:101AD000FFF7C0FD364B1B68A3B1364B1B681D4298
:101AE0004ED135B1083515F0070F02D025F00705A6
:101AF0000835002D46D0304B1B68AB4251D32F4ADE
:101B0000146804E0FFF780FFE7E722461C4663689D
:101B1000AB4202D22368002BF7D1254B1B68A342AE
:101B200041D0166808362368136063685B1B102B6E
:101B300010D9601910F0070F08D04FF0500383F34D
:101B40001188BFF36F8FBFF34F8FFEE7436065606F
:101B5000FFF78CFF626818490B689B1A0B601849E5
:101B600009688B4201D216490B60124B1B68134364
:101B7000636000232360134A13680133136002E09B
:101B8000002600E00026FFF7F9FD16F0070F0CD045
:101B90004FF0500383F31188BFF36F8FBFF34F8F64
:101BA000FEE70026EFE70026EDE7304670BD00BFF8
:101BB00034040020381000203C1000204C1000207D
:101BC0004010002044100020002834D038B50446CE
:101BD000A0F1080550F8043C174A1268134208D1D6
:101BE0004FF0500383F31188BFF36F8FBFF34F8F14
:101BF000FEE750F8081C41B14FF0500383F3118801
:101C0000BFF36F8FBFF34F8FFEE723EA020340F865
:101C1000043CFFF71FFD54F8041C084A13680B44EA
:101C200013602846FFF722FF054A1368013313604B
:101C3000FFF7A4FD38BD7047381000203C1000208D
:101C40004810002082B0002301930D4B1B68B3F1B4
:101C5000FF3F08D04FF0500383F31188BFF36F8F1D
:101C6000BFF34F8FFEE74FF0500383F31188BFF3AC
:101C70006F8FBFF34F8F019B002BFCD002B07047DA
:101C80000C00002006480068006880F3088862B6EF
:101C900061B6BFF34F8FBFF36F8F00DF00BF00004F
:101CA00008ED00E04FF0807340F8043C21F00101A2
:101CB00040F8081C034B40F80C3C40F8202C4038FE
:101CC000704700BF451C0008000000000000000035
:101CD000074B19680868B0E8F00F80F30988BFF374
:101CE0006F8F4FF0000080F311884EF00D0E70479B
:101CF000080300204FF0500383F31188BFF36F8F68
:101D0000BFF34F8F0B4A136801331360012B00D0D0
:101D100070474FF0E023D3F8043D13F0FF0FF7D0E6
:101D20004FF0500383F31188BFF36F8FBFF34F8FD2
:101D3000FEE700BF0C000020094B1B6843B94FF0C1
:101D4000500383F31188BFF36F8FBFF34F8FFEE70C
:101D5000013B034A13600BB983F31188704700BF3E
:101D60000C00002000000000000000000000000047
:101D7000EFF30980BFF36F8F0D4B1A6820E9F00F66
:101D800010602DE908404FF0500080F31188FFF7F4
:101D900097FD4FF0000080F31188BDE808401968F6
:101DA0000868B0E8F00F80F30988BFF36F8F7047C1
:101DB0000803002008B54FF0500383F31188BFF3E8
:101DC0006F8FBFF34F8FFFF74DFC28B14FF0E0232B
:101DD0004FF08052C3F8042D002383F3118808BD0F
:101DE0004FF0E022002313619361054B1B68054906
:101DF000A1FB03139B09013B536107231361704748
:101E000008000020D34D621010B582B02A4B1A781A
:101E1000D2B20192FF221A701B78DBB28DF8033028
:101E20009DF8033003F05003244A1370244B07221B
:101E30001A6009E0224A1368013B13609DF80330E1
:101E40005B00DBB28DF803309DF8033013F0800F98
:101E5000F0D11B4B1B68032B08D04FF0500383F3CA
:101E60001188BFF36F8FBFF34F8FFEE71B02144A39
:101E7000136003F4E0631360019BDBB20E4A13703E
:101E80004FF0E023D3F8202D42F47002C3F8202D48
:101E9000D3F8202D42F07042C3F8202DFFF7A0FFA9
:101EA0000024084B1C60FFF7EDFEFFF709FDFFF76C
:101EB000C9FE204602B010BD00E400E0541000202E
:101EC000581000200C000020FFF741F90B480C4986
:101ED0000C4A002302E0D458C4500433C4188C4286
:101EE000F9D3094A094C002301E013600432A242ED
:101EF000FBD3FEF751F9FEF789FA70470000002086
:101F000010000020881F0008100000205C10002036
:101F1000FEE70000F8B500BFF8BC08BC9E4670475D
:0C1F2000F8B500BFF8BC08BC9E46704736
:101F2C00481F0008FD02000800000000000000002F
:101F3C008000000000000000000000006465666185
:101F4C00756C745461736B00020304050607080971
:101F5C000A0B0C0D0E0F1010010200000000000007
:101F6C0000000000010203040607080949444C451F
:041F7C000000000061
:041F800079010008DB
:041F840051010008FF
:101F8800010000001000000000127A00AAAAAAAA04
:0400000508001EC908
:00000001FF
